:100000000C942A000C9434000C9434000C943400AA
:100010000C9434000C9434000C9434000C94340090
:100020000C9434000C9434000C9434000C94340080
:100030000C9434000C9434000C9434000C94340070
:100040000C9434000C9434000C9434000C94340060
:100050000C94340011241FBECFE5D8E0DEBFCDBF25
:100060000E9436000C9416010C9400008FEF87BBA1
:100070008ABB8FE388BB2FE38DE093E02150804063
:100080009040E1F700C0000086E088BB2FE38DE0E0
:1000900093E0215080409040E1F700C000008BE5E4
:1000A00088BB2FE38DE093E0215080409040E1F742
:1000B00000C000008FE488BB2FE38DE093E0215067
:1000C00080409040E1F700C0000086E688BB2FE347
:1000D0008DE093E0215080409040E1F700C00000A7
:1000E0008DE688BB2FE38DE093E021508040904067
:1000F000E1F700C000008DE788BB2FE38DE093E0BF
:10010000215080409040E1F700C0000087E088BBAC
:100110002FE38DE093E0215080409040E1F700C054
:1001200000008FE788BB2FE38DE093E021508040F3
:100130009040E1F700C000008FE688BB2FE38DE020
:1001400093E0215080409040E1F700C0000080EC37
:100150008BBB2FE38DE093E0215080409040E1F78E
:1001600000C0000089EF8BBB2FE38DE093E02150AE
:1001700080409040E1F700C0000084EA8BBB2FE391
:100180008DE093E0215080409040E1F700C00000F6
:1001900080EB8BBB2FE38DE093E0215080409040BB
:1001A000E1F700C0000089E98BBB2FE38DE093E00D
:1001B000215080409040E1F700C0000082E98BBBF5
:1001C0002FE38DE093E0215080409040E1F700C0A4
:1001D000000082E88BBB2FE38DE093E0215080404C
:1001E0009040E1F700C0000088EF8BBB2FE38DE06B
:1001F00093E0215080409040E1F700C0000080E88B
:100200008BBB2FE38DE093E0215080409040E1F7DD
:1002100000C0000080E98BBB2FE38DE093E021500C
:1002200080409040E1F700C0000023CFF894FFCF5A
:00000001FF
